[
    [
       "gethexaddress",
       [
          "TFSHej1QVx67UUBpTPkkCLtNAQkna63oVU"
       ],
       {
          "jsonrpc":"2.0",
          "result":"3bf7bdb3b6cbf3fa961840cf268f80b1798a7f8e",
          "id":"1640800890505"
       }
    ],
    [
       "getaddressutxos",
       [
          {
             "addresses":[
                "TMZZPF9Rzow8pt2RAqumTWRXo2AkKaYgaE"
             ],
             "chainInfo":false
          }
       ],
       {
          "jsonrpc":"2.0",
          "result":[
             {
                "address":"TMZZPF9Rzow8pt2RAqumTWRXo2AkKaYgaE",
                "txid":"5e8fbdc128653fa5a1c730c2db75595b48f013ee420da2d13ac04e575c9bf506",
                "outputIndex":1,
                "script":"76a9147f288a70fea402dcf5ddbadd155ae7545af4fae088ac",
                "satoshis":4840100000,
                "height":74692
             },
             {
                "address":"TMZZPF9Rzow8pt2RAqumTWRXo2AkKaYgaE",
                "txid":"590b696635751cb6cfbee2658f6ce3b2ba22f7ac34d8499a1258990f18f6d489",
                "outputIndex":1,
                "script":"76a9147f288a70fea402dcf5ddbadd155ae7545af4fae088ac",
                "satoshis":4901500000,
                "height":74695
             },
             {
                "address":"TMZZPF9Rzow8pt2RAqumTWRXo2AkKaYgaE",
                "txid":"150077feae1366b7abded0864bcdaef881313a6115c7870dcda755757d1d4dba",
                "outputIndex":1,
                "script":"76a9147f288a70fea402dcf5ddbadd155ae7545af4fae088ac",
                "satoshis":4801235000,
                "height":84830
             },
             {
                "address":"TMZZPF9Rzow8pt2RAqumTWRXo2AkKaYgaE",
                "txid":"00df7facfd59e1ddfe607a4945cd95bce48fed5db69d9a5cb0aac9467f2bd3d4",
                "outputIndex":1,
                "script":"76a9147f288a70fea402dcf5ddbadd155ae7545af4fae088ac",
                "satoshis":4899999000,
                "height":91832
             },
             {
                "address":"TMZZPF9Rzow8pt2RAqumTWRXo2AkKaYgaE",
                "txid":"a0d31ada8812070d06bcb5d6c8bb75eb1d6c8d89d0f7dcd2a33f90543cd15ec9",
                "outputIndex":1,
                "script":"76a9147f288a70fea402dcf5ddbadd155ae7545af4fae088ac",
                "satoshis":4820357560,
                "height":91841
             },
             {
                "address":"TMZZPF9Rzow8pt2RAqumTWRXo2AkKaYgaE",
                "txid":"c4f6d1a7e2858d0df92b30618e2eddfecfa2a2f204c47a1155f5abffbda0dce1",
                "outputIndex":1,
                "script":"76a9147f288a70fea402dcf5ddbadd155ae7545af4fae088ac",
                "satoshis":4866099000,
                "height":92177
             },
             {
                "address":"TMZZPF9Rzow8pt2RAqumTWRXo2AkKaYgaE",
                "txid":"7bfb50636cab664a0ec0652a2793aafe4fb8eba91ac219ec155c0f0a1df382ee",
                "outputIndex":1,
                "script":"76a9147f288a70fea402dcf5ddbadd155ae7545af4fae088ac",
                "satoshis":4805218240,
                "height":92240
             },
             {
                "address":"TMZZPF9Rzow8pt2RAqumTWRXo2AkKaYgaE",
                "txid":"c9709be7f0ac5100bf024e191e85babe96efc7e565efae5b8ae86bea40d6d5c1",
                "outputIndex":1,
                "script":"76a9147f288a70fea402dcf5ddbadd155ae7545af4fae088ac",
                "satoshis":4810840800,
                "height":98393
             },
             {
                "address":"TMZZPF9Rzow8pt2RAqumTWRXo2AkKaYgaE",
                "txid":"ec675af41e1ba5c6b5af75e8a3c027557e526087c9c8de2ae84ee6749084d574",
                "outputIndex":1,
                "script":"76a9147f288a70fea402dcf5ddbadd155ae7545af4fae088ac",
                "satoshis":4773999000,
                "height":98422
             },
             {
                "address":"TMZZPF9Rzow8pt2RAqumTWRXo2AkKaYgaE",
                "txid":"30db706636057f139df77f1de54ac6d1149f7b3d409908603b41ee43fdc58950",
                "outputIndex":1,
                "script":"76a9147f288a70fea402dcf5ddbadd155ae7545af4fae088ac",
                "satoshis":4835399000,
                "height":98439
             },
             {
                "address":"TMZZPF9Rzow8pt2RAqumTWRXo2AkKaYgaE",
                "txid":"2823b780f9e2f79640b38c590270fcc4f7f9cc0f7d5dcdc6d0b65fab58586113",
                "outputIndex":1,
                "script":"76a9147f288a70fea402dcf5ddbadd155ae7545af4fae088ac",
                "satoshis":4582200000,
                "height":125792
             },
             {
                "address":"TMZZPF9Rzow8pt2RAqumTWRXo2AkKaYgaE",
                "txid":"abe24128fc96ddab97535de9b1a360cb8d43448bec8e43e6c2c9d0cecff31caa",
                "outputIndex":1,
                "script":"76a9147f288a70fea402dcf5ddbadd155ae7545af4fae088ac",
                "satoshis":4615120000,
                "height":125804
             },
             {
                "address":"TMZZPF9Rzow8pt2RAqumTWRXo2AkKaYgaE",
                "txid":"17cb2e4f05bb74d9ab933cb9a0ac61c0ff74643d4ad3e30fc7570c1314cfa2e0",
                "outputIndex":1,
                "script":"76a9147f288a70fea402dcf5ddbadd155ae7545af4fae088ac",
                "satoshis":4483500000,
                "height":125997
             },
             {
                "address":"TMZZPF9Rzow8pt2RAqumTWRXo2AkKaYgaE",
                "txid":"c9c4e354da1bda6b873532dfd3e4da60f8b8c1b53ca30b8b7af01a3ef1fe6dc1",
                "outputIndex":1,
                "script":"76a9147f288a70fea402dcf5ddbadd155ae7545af4fae088ac",
                "satoshis":4549899000,
                "height":126865
             },
             {
                "address":"TMZZPF9Rzow8pt2RAqumTWRXo2AkKaYgaE",
                "txid":"1982441d9f437b7b29dc2b9d094e35638df7b5f354ce9a0cc2748292fd14e8c6",
                "outputIndex":1,
                "script":"76a9147f288a70fea402dcf5ddbadd155ae7545af4fae088ac",
                "satoshis":4619200000,
                "height":126925
             },
             {
                "address":"TMZZPF9Rzow8pt2RAqumTWRXo2AkKaYgaE",
                "txid":"3e4797cbe63239a091ddd329be8bd0367028f53f691e8ae9b4d5bec2d7bb0a2d",
                "outputIndex":1,
                "script":"76a9147f288a70fea402dcf5ddbadd155ae7545af4fae088ac",
                "satoshis":4553719000,
                "height":127386
             },
             {
                "address":"TMZZPF9Rzow8pt2RAqumTWRXo2AkKaYgaE",
                "txid":"8a821721ca855ba9725ab0df81940a965f26e06c4b486cdad6a55c8afc678153",
                "outputIndex":1,
                "script":"76a9147f288a70fea402dcf5ddbadd155ae7545af4fae088ac",
                "satoshis":3801800,
                "height":135692
             },
             {
                "address":"TMZZPF9Rzow8pt2RAqumTWRXo2AkKaYgaE",
                "txid":"8141fb1376a762718cc7daaebe8ffd5f521314211dcf6e75cba11fcd0517445f",
                "outputIndex":1,
                "script":"76a9147f288a70fea402dcf5ddbadd155ae7545af4fae088ac",
                "satoshis":4968419000,
                "height":135723
             }
          ],
          "id":"1640800890624"
       }
    ],
    [
       "sendrawtransaction",
       [
          "0100000001b2ff555a0736a787801cdddc575216883e6d13b55bd0103355146c527c89cc36010000006b483045022100ca93aa66f52f6e52aeb688cd09d527921d6f7fba7a3fb447f3dc4496dca3ab0302204c04ae65beea658f92e0e7e3f8af9b962d7c33ba5076b0129aaee3182e555935012103eab0a9e49fd7bcfa9f81b76763aab0c8cd99c5f44f969448a0f20f818bc0a18effffffff02000000000000000062010402f055012844a9059cbb0000000000000000000000003bf7bdb3b6cbf3fa961840cf268f80b1798a7f8e0000000000000000000000000000000000000000000000000000000000000001146c0ade60f61d37956ae9dd454a86a6bc7ea3b52cc2f8821924010000001976a9147f288a70fea402dcf5ddbadd155ae7545af4fae088ac00000000"
       ],
       {
          "jsonrpc":"2.0",
          "result":"9e9a572ab1821c59ad009639504f4342fb9d69ce2cab9c73563e1e2f36c717b0",
          "id":"1640800890808"
       }
    ],
    [
      "getaddresstxids",
      [
         {
            "addresses":[
               "TGwSEF8AeYUeMf5aDTavry8Xuvdn9zKM5T"
            ],
            "start":182000,
            "end":182001
         }
      ],
      {
         "jsonrpc":"2.0",
         "result":[
            "50642aea4fa7aa7d59b6e3aa5d33d481d7cea90f5a406cb45e656adc7b2919f0"
         ],
         "id":"1643027902903"
      }
   ],
   [
      "getrawtransaction",
      [
         "50642aea4fa7aa7d59b6e3aa5d33d481d7cea90f5a406cb45e656adc7b2919f0",
         true
      ],
      {
         "jsonrpc":"2.0",
         "result":{
            "blockhash":"9f871662847b6f3ce51923460c2a2ea9a5c3a46e73ec9937b77545ab5148c735",
            "blocktime":1641323507,
            "confirmations":142064,
            "hash":"50642aea4fa7aa7d59b6e3aa5d33d481d7cea90f5a406cb45e656adc7b2919f0",
            "height":182001,
            "hex":"0200000003c1d5d640ea6be88a5baeef65e5c7ef96beba851e194e02bf0051acf0e79b70c9010000006a47304402202aebdc880865b57702fa4f567a25786865eb39f4d54a1cbbb8f32769a15fc96802203b8f5535a85fcb30f865eb95acfa121f37becb1901c643e57afed9f2761ac15b012103eab0a9e49fd7bcfa9f81b76763aab0c8cd99c5f44f969448a0f20f818bc0a18effffffffb017c7362f1e3e56739cab2cce699dfb42434f50399600ad591c82b12a579a9e010000006a47304402202f6866ee29a75f91fd8d1e131cc57cdfc8276defb25080db50e47387f576bc2e0220302ef0d9e5bf4f4309b1b47fd9cc73f05f6af26de5f2906f2f92f84eea9e51a1012103eab0a9e49fd7bcfa9f81b76763aab0c8cd99c5f44f969448a0f20f818bc0a18effffffffc16dfef13e1af07a8b0ba33cb5c1b8f860dae4d3df3235876bda1bda54e3c4c9010000006b4830450221008ffc08dc02d90c1f2d257bc20c4932a8cd0a400e4b658bc7996687e25403dbf7022016af64d2b5317773f93ebae09048ba9baebf23a9037381cd95779ab532a4be72012103eab0a9e49fd7bcfa9f81b76763aab0c8cd99c5f44f969448a0f20f818bc0a18effffffff0200e40b54020000001976a9144c7317165648ca7d1c66845cb1afba5fa845387388ac78c4f6fd000000001976a9147f288a70fea402dcf5ddbadd155ae7545af4fae088ac00000000",
            "locktime":0,
            "size":520,
            "time":1641323507,
            "txid":"50642aea4fa7aa7d59b6e3aa5d33d481d7cea90f5a406cb45e656adc7b2919f0",
            "version":2,
            "vin":[
               {
                  "address":"TMZZPF9Rzow8pt2RAqumTWRXo2AkKaYgaE",
                  "scriptSig":{
                     "asm":"304402202aebdc880865b57702fa4f567a25786865eb39f4d54a1cbbb8f32769a15fc96802203b8f5535a85fcb30f865eb95acfa121f37becb1901c643e57afed9f2761ac15b[ALL] 03eab0a9e49fd7bcfa9f81b76763aab0c8cd99c5f44f969448a0f20f818bc0a18e",
                     "hex":"47304402202aebdc880865b57702fa4f567a25786865eb39f4d54a1cbbb8f32769a15fc96802203b8f5535a85fcb30f865eb95acfa121f37becb1901c643e57afed9f2761ac15b012103eab0a9e49fd7bcfa9f81b76763aab0c8cd99c5f44f969448a0f20f818bc0a18e"
                  },
                  "sequence":4294967295,
                  "txid":"c9709be7f0ac5100bf024e191e85babe96efc7e565efae5b8ae86bea40d6d5c1",
                  "value":48.108408,
                  "valueSat":4810840800,
                  "vout":1
               },
               {
                  "address":"TMZZPF9Rzow8pt2RAqumTWRXo2AkKaYgaE",
                  "scriptSig":{
                     "asm":"304402202f6866ee29a75f91fd8d1e131cc57cdfc8276defb25080db50e47387f576bc2e0220302ef0d9e5bf4f4309b1b47fd9cc73f05f6af26de5f2906f2f92f84eea9e51a1[ALL] 03eab0a9e49fd7bcfa9f81b76763aab0c8cd99c5f44f969448a0f20f818bc0a18e",
                     "hex":"47304402202f6866ee29a75f91fd8d1e131cc57cdfc8276defb25080db50e47387f576bc2e0220302ef0d9e5bf4f4309b1b47fd9cc73f05f6af26de5f2906f2f92f84eea9e51a1012103eab0a9e49fd7bcfa9f81b76763aab0c8cd99c5f44f969448a0f20f818bc0a18e"
                  },
                  "sequence":4294967295,
                  "txid":"9e9a572ab1821c59ad009639504f4342fb9d69ce2cab9c73563e1e2f36c717b0",
                  "value":49.00619,
                  "valueSat":4900619000,
                  "vout":1
               },
               {
                  "address":"TMZZPF9Rzow8pt2RAqumTWRXo2AkKaYgaE",
                  "scriptSig":{
                     "asm":"30450221008ffc08dc02d90c1f2d257bc20c4932a8cd0a400e4b658bc7996687e25403dbf7022016af64d2b5317773f93ebae09048ba9baebf23a9037381cd95779ab532a4be72[ALL] 03eab0a9e49fd7bcfa9f81b76763aab0c8cd99c5f44f969448a0f20f818bc0a18e",
                     "hex":"4830450221008ffc08dc02d90c1f2d257bc20c4932a8cd0a400e4b658bc7996687e25403dbf7022016af64d2b5317773f93ebae09048ba9baebf23a9037381cd95779ab532a4be72012103eab0a9e49fd7bcfa9f81b76763aab0c8cd99c5f44f969448a0f20f818bc0a18e"
                  },
                  "sequence":4294967295,
                  "txid":"c9c4e354da1bda6b873532dfd3e4da60f8b8c1b53ca30b8b7af01a3ef1fe6dc1",
                  "value":45.49899,
                  "valueSat":4549899000,
                  "vout":1
               }
            ],
            "vout":[
               {
                  "n":0,
                  "scriptPubKey":{
                     "addresses":[
                        "TGwSEF8AeYUeMf5aDTavry8Xuvdn9zKM5T"
                     ],
                     "asm":"OP_DUP OP_HASH160 4c7317165648ca7d1c66845cb1afba5fa8453873 OP_EQUALVERIFY OP_CHECKSIG",
                     "hex":"76a9144c7317165648ca7d1c66845cb1afba5fa845387388ac",
                     "reqSigs":1,
                     "type":"pubkeyhash"
                  },
                  "value":100,
                  "valueSat":10000000000
               },
               {
                  "n":1,
                  "scriptPubKey":{
                     "addresses":[
                        "TMZZPF9Rzow8pt2RAqumTWRXo2AkKaYgaE"
                     ],
                     "asm":"OP_DUP OP_HASH160 7f288a70fea402dcf5ddbadd155ae7545af4fae0 OP_EQUALVERIFY OP_CHECKSIG",
                     "hex":"76a9147f288a70fea402dcf5ddbadd155ae7545af4fae088ac",
                     "reqSigs":1,
                     "type":"pubkeyhash"
                  },
                  "value":42.608078,
                  "valueSat":4260807800
               }
            ],
            "vsize":520,
            "weight":2080
         },
         "id":"1643027903015"
      }
   ],
   [
      "getaddresstxids",
      [
         {
            "addresses":[
               "TGwSEF8AeYUeMf5aDTavry8Xuvdn9zKM5T"
            ]
         }
      ],
      {
         "jsonrpc":"2.0",
         "result":[
            "50642aea4fa7aa7d59b6e3aa5d33d481d7cea90f5a406cb45e656adc7b2919f0"
         ],
         "id":"1643028843657"
      }
   ],
   [
      "getaddresstxids",
      [
         {
            "addresses":[
               "TGwSEF8AeYUeMf5aDTavry8Xuvdn9zKM5T"
            ],
            "start":182000,
            "end":2147483647
         }
      ],
      {
         "jsonrpc":"2.0",
         "result":[
            "50642aea4fa7aa7d59b6e3aa5d33d481d7cea90f5a406cb45e656adc7b2919f0"
         ],
         "id":"1643029021731"
      }
   ]
]